{
  "contractName": "RegistryProxy",
  "abi": [
    {
      "inputs": [
        {
          "name": "_registry",
          "type": "address"
        }
      ],
      "payable": false,
      "stateMutability": "nonpayable",
      "type": "constructor"
    },
    {
      "constant": true,
      "inputs": [],
      "name": "tokenCount",
      "outputs": [
        {
          "name": "",
          "type": "uint256"
        }
      ],
      "payable": false,
      "stateMutability": "view",
      "type": "function"
    },
    {
      "constant": true,
      "inputs": [
        {
          "name": "_id",
          "type": "uint256"
        }
      ],
      "name": "getToken",
      "outputs": [
        {
          "components": [
            {
              "name": "id",
              "type": "uint256"
            },
            {
              "name": "addr",
              "type": "address"
            },
            {
              "name": "tla",
              "type": "string"
            },
            {
              "name": "base",
              "type": "uint256"
            },
            {
              "name": "name",
              "type": "string"
            },
            {
              "name": "owner",
              "type": "address"
            }
          ],
          "name": "token",
          "type": "tuple"
        }
      ],
      "payable": false,
      "stateMutability": "view",
      "type": "function"
    },
    {
      "constant": true,
      "inputs": [
        {
          "name": "_address",
          "type": "address"
        }
      ],
      "name": "fromAddress",
      "outputs": [
        {
          "components": [
            {
              "name": "id",
              "type": "uint256"
            },
            {
              "name": "addr",
              "type": "address"
            },
            {
              "name": "tla",
              "type": "string"
            },
            {
              "name": "base",
              "type": "uint256"
            },
            {
              "name": "name",
              "type": "string"
            },
            {
              "name": "owner",
              "type": "address"
            }
          ],
          "name": "token",
          "type": "tuple"
        }
      ],
      "payable": false,
      "stateMutability": "view",
      "type": "function"
    },
    {
      "constant": true,
      "inputs": [
        {
          "name": "_TLA",
          "type": "string"
        }
      ],
      "name": "fromTLA",
      "outputs": [
        {
          "components": [
            {
              "name": "id",
              "type": "uint256"
            },
            {
              "name": "addr",
              "type": "address"
            },
            {
              "name": "tla",
              "type": "string"
            },
            {
              "name": "base",
              "type": "uint256"
            },
            {
              "name": "name",
              "type": "string"
            },
            {
              "name": "owner",
              "type": "address"
            }
          ],
          "name": "token",
          "type": "tuple"
        }
      ],
      "payable": false,
      "stateMutability": "view",
      "type": "function"
    },
    {
      "constant": true,
      "inputs": [],
      "name": "allTokensAsStructs",
      "outputs": [
        {
          "components": [
            {
              "name": "id",
              "type": "uint256"
            },
            {
              "name": "addr",
              "type": "address"
            },
            {
              "name": "tla",
              "type": "string"
            },
            {
              "name": "base",
              "type": "uint256"
            },
            {
              "name": "name",
              "type": "string"
            },
            {
              "name": "owner",
              "type": "address"
            }
          ],
          "name": "tokens",
          "type": "tuple[]"
        }
      ],
      "payable": false,
      "stateMutability": "view",
      "type": "function"
    },
    {
      "constant": true,
      "inputs": [],
      "name": "allTokensAsArrays",
      "outputs": [
        {
          "name": "ids",
          "type": "uint256[]"
        },
        {
          "name": "addresses",
          "type": "address[]"
        },
        {
          "name": "tlas",
          "type": "string[]"
        },
        {
          "name": "bases",
          "type": "uint256[]"
        },
        {
          "name": "names",
          "type": "string[]"
        },
        {
          "name": "owners",
          "type": "address[]"
        }
      ],
      "payable": false,
      "stateMutability": "view",
      "type": "function"
    }
  ],
  "bytecode": "0x60806040523480156200001157600080fd5b5060405160208062001d088339810180604052620000339190810190620000df565b6000813b905060008111151562000081576040517f08c379a0000000000000000000000000000000000000000000000000000000008152600401620000789062000142565b60405180910390fd5b816000806101000a81548173ffffffffffffffffffffffffffffffffffffffff021916908373ffffffffffffffffffffffffffffffffffffffff160217905550505062000198565b6000620000d7825162000184565b905092915050565b600060208284031215620000f257600080fd5b60006200010284828501620000c9565b91505092915050565b6000601982527f416472657373206973206e6f74206120636f6e74726163742e000000000000006020830152604082019050919050565b600060208201905081810360008301526200015d816200010b565b9050919050565b600073ffffffffffffffffffffffffffffffffffffffff82169050919050565b6000620001918262000164565b9050919050565b611b6080620001a86000396000f3fe608060405260043610610078576000357c0100000000000000000000000000000000000000000000000000000000900463ffffffff168063891de9ed1461007d5780639f181b5e146100ba578063b72e717d146100e5578063e2ff34d514610122578063e4b50cb81461014d578063f6831f6a1461018a575b600080fd5b34801561008957600080fd5b506100a4600480360361009f919081019061135d565b6101ba565b6040516100b19190611946565b60405180910390f35b3480156100c657600080fd5b506100cf610387565b6040516100dc9190611968565b60405180910390f35b3480156100f157600080fd5b5061010c6004803603610107919081019061128d565b610449565b6040516101199190611946565b60405180910390f35b34801561012e57600080fd5b506101376105d0565b6040516101449190611875565b60405180910390f35b34801561015957600080fd5b50610174600480360361016f91908101906113a2565b6109c3565b6040516101819190611946565b60405180910390f35b34801561019657600080fd5b5061019f610b4a565b6040516101b196959493929190611897565b60405180910390f35b6101c26110d5565b6000806000606060008060009054906101000a900473ffffffffffffffffffffffffffffffffffffffff1673ffffffffffffffffffffffffffffffffffffffff1663891de9ed89896040518363ffffffff167c0100000000000000000000000000000000000000000000000000000000028152600401610243929190611922565b60006040518083038186803b15801561025b57600080fd5b505afa15801561026f573d6000803e3d6000fd5b505050506040513d6000823e3d601f19601f8201168201806040525061029891908101906113f4565b945094509450945094508486600001818152505083866020019073ffffffffffffffffffffffffffffffffffffffff16908173ffffffffffffffffffffffffffffffffffffffff168152505087878080601f016020809104026020016040519081016040528093929190818152602001838380828437600081840152601f19601f82011690508083019250505050505050866040018190525082866060018181525050818660800181905250808660a0019073ffffffffffffffffffffffffffffffffffffffff16908173ffffffffffffffffffffffffffffffffffffffff1681525050505050505092915050565b60008060009054906101000a900473ffffffffffffffffffffffffffffffffffffffff1673ffffffffffffffffffffffffffffffffffffffff16639f181b5e6040518163ffffffff167c010000000000000000000000000000000000000000000000000000000002815260040160206040518083038186803b15801561040c57600080fd5b505afa158015610420573d6000803e3d6000fd5b505050506040513d601f19601f8201168201806040525061044491908101906113cb565b905090565b6104516110d5565b600060606000606060008060009054906101000a900473ffffffffffffffffffffffffffffffffffffffff1673ffffffffffffffffffffffffffffffffffffffff1663b72e717d886040518263ffffffff167c01000000000000000000000000000000000000000000000000000000000281526004016104d1919061185a565b60006040518083038186803b1580156104e957600080fd5b505afa1580156104fd573d6000803e3d6000fd5b505050506040513d6000823e3d601f19601f820116820180604052506105269190810190611483565b945094509450945094508486600001818152505086866020019073ffffffffffffffffffffffffffffffffffffffff16908173ffffffffffffffffffffffffffffffffffffffff168152505083866040018190525082866060018181525050818660800181905250808660a0019073ffffffffffffffffffffffffffffffffffffffff16908173ffffffffffffffffffffffffffffffffffffffff16815250505050505050919050565b606060008060009054906101000a900473ffffffffffffffffffffffffffffffffffffffff1673ffffffffffffffffffffffffffffffffffffffff16639f181b5e6040518163ffffffff167c010000000000000000000000000000000000000000000000000000000002815260040160206040518083038186803b15801561065757600080fd5b505afa15801561066b573d6000803e3d6000fd5b505050506040513d601f19601f8201168201806040525061068f91908101906113cb565b9050806040519080825280602002602001820160405280156106cb57816020015b6106b8611138565b8152602001906001900390816106b05790505b509150600080905060008090505b828210156109bd5760008060009054906101000a900473ffffffffffffffffffffffffffffffffffffffff1673ffffffffffffffffffffffffffffffffffffffff168260405160240161072c9190611968565b6040516020818303038152906040527f044215c6000000000000000000000000000000000000000000000000000000007bffffffffffffffffffffffffffffffffffffffffffffffffffffffff19166020820180517bffffffffffffffffffffffffffffffffffffffffffffffffffffffff83818316178352505050506040518082805190602001908083835b6020831015156107de57805182526020820191506020810190506020830392506107b9565b6001836020036101000a038019825116818451168082178552505050505050905001915050600060405180830381855afa9150503d806000811461083e576040519150601f19603f3d011682016040523d82523d6000602084013e610843565b606091505b5050905080156109af57600060606000606060008060009054906101000a900473ffffffffffffffffffffffffffffffffffffffff1673ffffffffffffffffffffffffffffffffffffffff1663044215c6886040518263ffffffff167c01000000000000000000000000000000000000000000000000000000000281526004016108cd9190611968565b60006040518083038186803b1580156108e557600080fd5b505afa1580156108f9573d6000803e3d6000fd5b505050506040513d6000823e3d601f19601f8201168201806040525061092291908101906112b6565b9450945094509450945060c0604051908101604052808881526020018673ffffffffffffffffffffffffffffffffffffffff1681526020018581526020018481526020018381526020018273ffffffffffffffffffffffffffffffffffffffff168152508a8981518110151561099457fe5b90602001906020020181905250878060010198505050505050505b8180600101925050506106d9565b50505090565b6109cb6110d5565b600060606000606060008060009054906101000a900473ffffffffffffffffffffffffffffffffffffffff1673ffffffffffffffffffffffffffffffffffffffff1663044215c6886040518263ffffffff167c0100000000000000000000000000000000000000000000000000000000028152600401610a4b9190611968565b60006040518083038186803b158015610a6357600080fd5b505afa158015610a77573d6000803e3d6000fd5b505050506040513d6000823e3d601f19601f82011682018060405250610aa091908101906112b6565b945094509450945094508686600001818152505084866020019073ffffffffffffffffffffffffffffffffffffffff16908173ffffffffffffffffffffffffffffffffffffffff168152505083866040018190525082866060018181525050818660800181905250808660a0019073ffffffffffffffffffffffffffffffffffffffff16908173ffffffffffffffffffffffffffffffffffffffff16815250505050505050919050565b60608060608060608060008060009054906101000a900473ffffffffffffffffffffffffffffffffffffffff1673ffffffffffffffffffffffffffffffffffffffff16639f181b5e6040518163ffffffff167c010000000000000000000000000000000000000000000000000000000002815260040160206040518083038186803b158015610bd857600080fd5b505afa158015610bec573d6000803e3d6000fd5b505050506040513d601f19601f82011682018060405250610c1091908101906113cb565b905080604051908082528060200260200182016040528015610c415781602001602082028038833980820191505090505b50965080604051908082528060200260200182016040528015610c735781602001602082028038833980820191505090505b50955080604051908082528060200260200182016040528015610caa57816020015b6060815260200190600190039081610c955790505b50945080604051908082528060200260200182016040528015610cdc5781602001602082028038833980820191505090505b50935080604051908082528060200260200182016040528015610d1357816020015b6060815260200190600190039081610cfe5790505b50925080604051908082528060200260200182016040528015610d455781602001602082028038833980820191505090505b509150600080905060008090505b828210156110ca5760008060009054906101000a900473ffffffffffffffffffffffffffffffffffffffff1673ffffffffffffffffffffffffffffffffffffffff1682604051602401610da69190611968565b6040516020818303038152906040527f044215c6000000000000000000000000000000000000000000000000000000007bffffffffffffffffffffffffffffffffffffffffffffffffffffffff19166020820180517bffffffffffffffffffffffffffffffffffffffffffffffffffffffff83818316178352505050506040518082805190602001908083835b602083101515610e585780518252602082019150602081019050602083039250610e33565b6001836020036101000a038019825116818451168082178552505050505050905001915050600060405180830381855afa9150503d8060008114610eb8576040519150601f19603f3d011682016040523d82523d6000602084013e610ebd565b606091505b5050905080156110bc57600060606000606060008060009054906101000a900473ffffffffffffffffffffffffffffffffffffffff1673ffffffffffffffffffffffffffffffffffffffff1663044215c6886040518263ffffffff167c0100000000000000000000000000000000000000000000000000000000028152600401610f479190611968565b60006040518083038186803b158015610f5f57600080fd5b505afa158015610f73573d6000803e3d6000fd5b505050506040513d6000823e3d601f19601f82011682018060405250610f9c91908101906112b6565b94509450945094509450868f89815181101515610fb557fe5b9060200190602002018181525050848e89815181101515610fd257fe5b9060200190602002019073ffffffffffffffffffffffffffffffffffffffff16908173ffffffffffffffffffffffffffffffffffffffff1681525050838d8981518110151561101d57fe5b90602001906020020181905250828c8981518110151561103957fe5b9060200190602002018181525050818b8981518110151561105657fe5b90602001906020020181905250808a8981518110151561107257fe5b9060200190602002019073ffffffffffffffffffffffffffffffffffffffff16908173ffffffffffffffffffffffffffffffffffffffff1681525050878060010198505050505050505b818060010192505050610d53565b505050909192939495565b60c06040519081016040528060008152602001600073ffffffffffffffffffffffffffffffffffffffff168152602001606081526020016000815260200160608152602001600073ffffffffffffffffffffffffffffffffffffffff1681525090565b60c06040519081016040528060008152602001600073ffffffffffffffffffffffffffffffffffffffff168152602001606081526020016000815260200160608152602001600073ffffffffffffffffffffffffffffffffffffffff1681525090565b60006111a78235611ab7565b905092915050565b60006111bb8251611ab7565b905092915050565b60008083601f84011215156111d757600080fd5b8235905067ffffffffffffffff8111156111f057600080fd5b60208301915083600182028301111561120857600080fd5b9250929050565b600082601f830112151561122257600080fd5b8151611235611230826119b0565b611983565b9150808252602083016020830185838301111561125157600080fd5b61125c838284611ae2565b50505092915050565b60006112718235611ac9565b905092915050565b60006112858251611ac9565b905092915050565b60006020828403121561129f57600080fd5b60006112ad8482850161119b565b91505092915050565b600080600080600060a086880312156112ce57600080fd5b60006112dc888289016111af565b955050602086015167ffffffffffffffff8111156112f957600080fd5b6113058882890161120f565b945050604061131688828901611279565b935050606086015167ffffffffffffffff81111561133357600080fd5b61133f8882890161120f565b9250506080611350888289016111af565b9150509295509295909350565b6000806020838503121561137057600080fd5b600083013567ffffffffffffffff81111561138a57600080fd5b611396858286016111c3565b92509250509250929050565b6000602082840312156113b457600080fd5b60006113c284828501611265565b91505092915050565b6000602082840312156113dd57600080fd5b60006113eb84828501611279565b91505092915050565b600080600080600060a0868803121561140c57600080fd5b600061141a88828901611279565b955050602061142b888289016111af565b945050604061143c88828901611279565b935050606086015167ffffffffffffffff81111561145957600080fd5b6114658882890161120f565b9250506080611476888289016111af565b9150509295509295909350565b600080600080600060a0868803121561149b57600080fd5b60006114a988828901611279565b955050602086015167ffffffffffffffff8111156114c657600080fd5b6114d28882890161120f565b94505060406114e388828901611279565b935050606086015167ffffffffffffffff81111561150057600080fd5b61150c8882890161120f565b925050608061151d888289016111af565b9150509295509295909350565b61153381611a7b565b82525050565b600061154482611a10565b808452602084019350611556836119dc565b60005b828110156115885761156c86835161152a565b61157582611a47565b9150602086019550600181019050611559565b50849250505092915050565b600061159f82611a1b565b808452602084019350836020820285016115b8856119e9565b60005b848110156115f15783830388526115d38383516116f5565b92506115de82611a54565b91506020880197506001810190506115bb565b508196508694505050505092915050565b600061160d82611a26565b80845260208401935083602082028501611626856119f6565b60005b8481101561165f5783830388526116418383516117bb565b925061164c82611a61565b9150602088019750600181019050611629565b508196508694505050505092915050565b600061167b82611a31565b80845260208401935061168d83611a03565b60005b828110156116bf576116a386835161184b565b6116ac82611a6e565b9150602086019550600181019050611690565b50849250505092915050565b60008284526020840193506116e1838584611ad3565b6116ea83611b15565b840190509392505050565b600061170082611a3c565b808452611714816020860160208601611ae2565b61171d81611b15565b602085010191505092915050565b600060c083016000830151611743600086018261184b565b506020830151611756602086018261152a565b506040830151848203604086015261176e82826116f5565b9150506060830151611783606086018261184b565b506080830151848203608086015261179b82826116f5565b91505060a08301516117b060a086018261152a565b508091505092915050565b600060c0830160008301516117d3600086018261184b565b5060208301516117e6602086018261152a565b50604083015184820360408601526117fe82826116f5565b9150506060830151611813606086018261184b565b506080830151848203608086015261182b82826116f5565b91505060a083015161184060a086018261152a565b508091505092915050565b61185481611aad565b82525050565b600060208201905061186f600083018461152a565b92915050565b6000602082019050818103600083015261188f8184611602565b905092915050565b600060c08201905081810360008301526118b18189611670565b905081810360208301526118c58188611539565b905081810360408301526118d98187611594565b905081810360608301526118ed8186611670565b905081810360808301526119018185611594565b905081810360a08301526119158184611539565b9050979650505050505050565b6000602082019050818103600083015261193d8184866116cb565b90509392505050565b60006020820190508181036000830152611960818461172b565b905092915050565b600060208201905061197d600083018461184b565b92915050565b6000604051905081810181811067ffffffffffffffff821117156119a657600080fd5b8060405250919050565b600067ffffffffffffffff8211156119c757600080fd5b601f19601f8301169050602081019050919050565b6000602082019050919050565b6000602082019050919050565b6000602082019050919050565b6000602082019050919050565b600081519050919050565b600081519050919050565b600081519050919050565b600081519050919050565b600081519050919050565b6000602082019050919050565b6000602082019050919050565b6000602082019050919050565b6000602082019050919050565b6000611a8682611a8d565b9050919050565b600073ffffffffffffffffffffffffffffffffffffffff82169050919050565b6000819050919050565b6000611ac282611a8d565b9050919050565b6000819050919050565b82818337600083830152505050565b60005b83811015611b00578082015181840152602081019050611ae5565b83811115611b0f576000848401525b50505050565b6000601f19601f830116905091905056fea265627a7a72305820b8922e8c826ff1243b79082aaff37d14a48141563b3b75370a4840b30abfe0016c6578706572696d656e74616cf50037",
  "source": "pragma solidity ^0.5.0;\npragma experimental ABIEncoderV2;\n\n// token registry contract interface\ncontract Registry {\n    function tokenCount() public view returns (uint);\n    function token(uint _id) external view returns (\n        address addr,\n        string memory tla,\n        uint base,\n        string memory name,\n        address owner\n    );\n    function fromAddress(address _addr) external view returns (\n        uint id,\n        string memory tla,\n        uint base,\n        string memory name,\n        address owner\n    );\n    function fromTLA(string calldata _tla) external view returns (\n        uint id,\n        address addr,\n        uint base,\n        string memory name,\n        address owner\n    );\n    function meta(uint _id, bytes32 _key) external view returns (\n        bytes32\n    );\n}\n\n/// @title A proxy contract for the Parity token registry\n/// @author Michael Bauer\n/// @notice Purpose of this contract is to enable batch retrieval of\n/// token definitions\ncontract RegistryProxy {\n\n    // struct as defined in TokenReg.sol\n    struct Token {\n        uint id;\n        address addr;\n        string tla;\n        uint base;\n        string name;\n        address owner;\n    }\n\n    // The Parity token registry contract\n    Registry internal registry;\n\n    constructor(address _registry) public {\n        // check if provided _registry is actually a contract\n        uint256 registryCode;\n        assembly {registryCode := extcodesize(_registry)}\n        require(\n            registryCode > 0,\n            \"Adress is not a contract.\"\n        );\n        // TODO: Check if required ABI is available?\n        registry = Registry(_registry);\n    }\n\n    /**\n      Get number of tokens registered\n    */\n    function tokenCount() public view returns (uint) {\n        return registry.tokenCount();\n    }\n\n    /**\n      @dev Get a single token by it's id. If the token ID is invalid this will revert.\n      @param _id The ID of the token to get\n      @return Token struct\n    */\n    function getToken(\n        uint _id\n    )\n        external\n        view\n        returns (Token memory token)\n    {\n        ( address addr, string memory tla, uint base, string memory name, address owner ) = registry.token(_id);\n        token.id = _id;\n        token.addr = addr;\n        token.tla = tla;\n        token.base = base;\n        token.name = name;\n        token.owner = owner;\n    }\n\n    /**\n      @dev Get a single token by it's contract address. Reverts if there is no token registered at provided address.\n      @param _address The contract address of the token to get\n      @return Token struct\n    */\n    function fromAddress(\n        address _address\n    )\n    external\n    view\n    returns (Token memory token)\n    {\n        ( uint id, string memory tla, uint base, string memory name, address owner ) = registry.fromAddress(_address);\n        token.id = id;\n        token.addr = _address;\n        token.tla = tla;\n        token.base = base;\n        token.name = name;\n        token.owner = owner;\n    }\n\n    /**\n      @dev Get a single token by it's TLA. Reverts if there is no token registered with provided TLA.\n      @param _TLA The TLA of the token to get\n      @return Token struct\n    */\n    function fromTLA(\n        string calldata _TLA\n    )\n    external\n    view\n    returns (Token memory token)\n    {\n        ( uint id, address addr, uint base, string memory name, address owner ) = registry.fromTLA(_TLA);\n        token.id = id;\n        token.addr = addr;\n        token.tla = _TLA;\n        token.base = base;\n        token.name = name;\n        token.owner = owner;\n    }\n\n    /**\n        @notice Get all tokens available in registry contract\n        @dev The registry does only provide the count of valid tokens, but not a list of existing tokenIDs. Since it\n        is possible to unregister existing token entries there will be \"gaps\" in the tokenID range. Therefor we need to\n        keep looking for tokens with increasing ID until we have found the expected number of tokens.\n        @return Array of Token structs (relies on experimental ABIEncoderV2!)\n    */\n    function allTokensAsStructs()\n    external\n    view\n    returns (Token[] memory tokens)\n    {\n        uint numExpectedTokens = registry.tokenCount();\n        tokens = new Token[](numExpectedTokens);\n        uint numFoundTokens = 0;\n        uint currentId = 0;\n        while(numFoundTokens < numExpectedTokens) {\n            // registry will revert in case a token has been deleted. This would break the whole call, so first\n            // check if the call will succeed via staticcall.\n            (bool success, /* bytes memory returnData*/ ) = address(registry).staticcall(abi.encodeWithSignature(\"token(uint256)\", currentId));\n            if(success){\n                // Perfect, the token 'id' is not deleted. As there is no sane way to obtain the mixture of\n                // strings and uints from 'bytes memory returnData' just issue a normal token(id) call, now\n                // that I know it won't revert.\n                ( address addr, string memory tla, uint base, string memory name, address owner ) = registry.token(currentId);\n                tokens[numFoundTokens] = Token(currentId,addr,tla,base,name,owner);\n                numFoundTokens++;\n            }\n            currentId++;\n        }\n    }\n\n    /**\n        @notice Get all tokens available in registry contract\n        @dev The registry does only provide the count of valid tokens, but not a list of existing tokenIDs. Since it\n        is possible to unregister existing token entries there will be \"gaps\" in the tokenID range. Therefor we need to\n        keep looking for tokens with increasing ID until we have found the expected number of tokens.\n        @return IDs, addresses, tlas, bases, names, owners as individual arrays\n    */\n    function allTokensAsArrays()\n    external\n    view\n    returns (\n        uint[] memory ids,\n        address[] memory addresses,\n        string[] memory tlas,\n        uint[] memory bases,\n        string[] memory names,\n        address[] memory owners\n    )\n    {\n        // prepare arrays\n        uint numExpectedTokens = registry.tokenCount();\n        ids = new uint[](numExpectedTokens);\n        addresses = new address[](numExpectedTokens);\n        tlas = new string[](numExpectedTokens);\n        bases = new uint[](numExpectedTokens);\n        names = new string[](numExpectedTokens);\n        owners = new address[](numExpectedTokens);\n\n        uint numFoundTokens = 0;\n        uint currentId = 0;\n        while(numFoundTokens < numExpectedTokens) {\n            // registry will revert in case a token has been deleted. This would break the whole call, so first\n            // check if the call will succeed via staticcall.\n            (bool success, /* bytes memory returnData*/ ) = address(registry).staticcall(abi.encodeWithSignature(\"token(uint256)\", currentId));\n            if(success){\n                // Perfect, the token 'id' is not deleted. As there is no sane way to obtain the mixture of\n                // strings and uints from 'bytes memory returnData' just issue a normal token(id) call, now\n                // that I know it won't revert.\n                ( address addr, string memory tla, uint base, string memory name, address owner ) = registry.token(currentId);\n                ids[numFoundTokens] = currentId;\n                addresses[numFoundTokens] = addr;\n                tlas[numFoundTokens] = tla;\n                bases[numFoundTokens] = base;\n                names[numFoundTokens] = name;\n                owners[numFoundTokens] = owner;\n                numFoundTokens++;\n            }\n            currentId++;\n        }\n    }\n}",
  "sourcePath": "/home/michael/WebstormProjects/TokenRegProxy/contracts/RegistryProxy.sol",
  "compiler": {
    "name": "solc",
    "version": "0.5.0+commit.1d4f565a.Emscripten.clang"
  },
  "schemaVersion": "3.0.6",
  "updatedAt": "2019-04-23T18:53:25.701Z",
  "devdoc": {
    "author": "Michael Bauer",
    "methods": {
      "allTokensAsArrays()": {
        "details": "The registry does only provide the count of valid tokens, but not a list of existing tokenIDs. Since it is possible to unregister existing token entries there will be \"gaps\" in the tokenID range. Therefor we need to keep looking for tokens with increasing ID until we have found the expected number of tokens.",
        "return": "IDs, addresses, tlas, bases, names, owners as individual arrays"
      },
      "allTokensAsStructs()": {
        "details": "The registry does only provide the count of valid tokens, but not a list of existing tokenIDs. Since it is possible to unregister existing token entries there will be \"gaps\" in the tokenID range. Therefor we need to keep looking for tokens with increasing ID until we have found the expected number of tokens.",
        "return": "Array of Token structs (relies on experimental ABIEncoderV2!)"
      },
      "fromAddress(address)": {
        "details": "Get a single token by it's contract address. Reverts if there is no token registered at provided address.",
        "params": {
          "_address": "The contract address of the token to get"
        },
        "return": "Token struct"
      },
      "fromTLA(string)": {
        "details": "Get a single token by it's TLA. Reverts if there is no token registered with provided TLA.",
        "params": {
          "_TLA": "The TLA of the token to get"
        },
        "return": "Token struct"
      },
      "getToken(uint256)": {
        "details": "Get a single token by it's id. If the token ID is invalid this will revert.",
        "params": {
          "_id": "The ID of the token to get"
        },
        "return": "Token struct"
      }
    },
    "title": "A proxy contract for the Parity token registry"
  },
  "userdoc": {
    "methods": {
      "allTokensAsArrays()": {
        "notice": "Get all tokens available in registry contract"
      },
      "allTokensAsStructs()": {
        "notice": "Get all tokens available in registry contract"
      },
      "tokenCount()": {
        "notice": "Get number of tokens registered"
      }
    },
    "notice": "Purpose of this contract is to enable batch retrieval of token definitions"
  }
}