{
  "contractName": "TokenReg",
  "abi": [
    {
      "constant": false,
      "inputs": [
        {
          "name": "_new",
          "type": "address"
        }
      ],
      "name": "setOwner",
      "outputs": [],
      "payable": false,
      "stateMutability": "nonpayable",
      "type": "function",
      "signature": "0x13af4035"
    },
    {
      "constant": true,
      "inputs": [],
      "name": "owner",
      "outputs": [
        {
          "name": "",
          "type": "address"
        }
      ],
      "payable": false,
      "stateMutability": "view",
      "type": "function",
      "signature": "0x8da5cb5b"
    },
    {
      "constant": true,
      "inputs": [],
      "name": "tokenCount",
      "outputs": [
        {
          "name": "",
          "type": "uint256"
        }
      ],
      "payable": false,
      "stateMutability": "view",
      "type": "function",
      "signature": "0x9f181b5e"
    },
    {
      "constant": true,
      "inputs": [],
      "name": "fee",
      "outputs": [
        {
          "name": "",
          "type": "uint256"
        }
      ],
      "payable": false,
      "stateMutability": "view",
      "type": "function",
      "signature": "0xddca3f43"
    },
    {
      "anonymous": false,
      "inputs": [
        {
          "indexed": false,
          "name": "tla",
          "type": "string"
        },
        {
          "indexed": true,
          "name": "id",
          "type": "uint256"
        },
        {
          "indexed": false,
          "name": "addr",
          "type": "address"
        },
        {
          "indexed": false,
          "name": "name",
          "type": "string"
        }
      ],
      "name": "Registered",
      "type": "event",
      "signature": "0x25074d730da65a10e171fe5589d2182313ef00da38d23a9ae3b78923568bdf2d"
    },
    {
      "anonymous": false,
      "inputs": [
        {
          "indexed": false,
          "name": "tla",
          "type": "string"
        },
        {
          "indexed": true,
          "name": "id",
          "type": "uint256"
        }
      ],
      "name": "Unregistered",
      "type": "event",
      "signature": "0x96e76fa77fea85d8abeb7533fdb8288c214bb1dcf1f867c8f36a95f1f509c175"
    },
    {
      "anonymous": false,
      "inputs": [
        {
          "indexed": true,
          "name": "id",
          "type": "uint256"
        },
        {
          "indexed": true,
          "name": "key",
          "type": "bytes32"
        },
        {
          "indexed": false,
          "name": "value",
          "type": "bytes32"
        }
      ],
      "name": "MetaChanged",
      "type": "event",
      "signature": "0x7991c63a749706fd298fc2387764d640be6e714307b6357b1d3c2ce35cba3b52"
    },
    {
      "anonymous": false,
      "inputs": [
        {
          "indexed": true,
          "name": "old",
          "type": "address"
        },
        {
          "indexed": true,
          "name": "current",
          "type": "address"
        }
      ],
      "name": "NewOwner",
      "type": "event",
      "signature": "0x70aea8d848e8a90fb7661b227dc522eb6395c3dac71b63cb59edd5c9899b2364"
    },
    {
      "constant": false,
      "inputs": [
        {
          "name": "_addr",
          "type": "address"
        },
        {
          "name": "_tla",
          "type": "string"
        },
        {
          "name": "_base",
          "type": "uint256"
        },
        {
          "name": "_name",
          "type": "string"
        }
      ],
      "name": "register",
      "outputs": [
        {
          "name": "",
          "type": "bool"
        }
      ],
      "payable": true,
      "stateMutability": "payable",
      "type": "function",
      "signature": "0x66b42dcb"
    },
    {
      "constant": false,
      "inputs": [
        {
          "name": "_id",
          "type": "uint256"
        }
      ],
      "name": "unregister",
      "outputs": [],
      "payable": false,
      "stateMutability": "nonpayable",
      "type": "function",
      "signature": "0xa02b161e"
    },
    {
      "constant": false,
      "inputs": [
        {
          "name": "_fee",
          "type": "uint256"
        }
      ],
      "name": "setFee",
      "outputs": [],
      "payable": false,
      "stateMutability": "nonpayable",
      "type": "function",
      "signature": "0x69fe0e2d"
    },
    {
      "constant": false,
      "inputs": [
        {
          "name": "_id",
          "type": "uint256"
        },
        {
          "name": "_key",
          "type": "bytes32"
        },
        {
          "name": "_value",
          "type": "bytes32"
        }
      ],
      "name": "setMeta",
      "outputs": [],
      "payable": false,
      "stateMutability": "nonpayable",
      "type": "function",
      "signature": "0xdd93890b"
    },
    {
      "constant": false,
      "inputs": [],
      "name": "drain",
      "outputs": [],
      "payable": false,
      "stateMutability": "nonpayable",
      "type": "function",
      "signature": "0x9890220b"
    },
    {
      "constant": true,
      "inputs": [
        {
          "name": "_id",
          "type": "uint256"
        }
      ],
      "name": "token",
      "outputs": [
        {
          "name": "addr",
          "type": "address"
        },
        {
          "name": "tla",
          "type": "string"
        },
        {
          "name": "base",
          "type": "uint256"
        },
        {
          "name": "name",
          "type": "string"
        },
        {
          "name": "owner",
          "type": "address"
        }
      ],
      "payable": false,
      "stateMutability": "view",
      "type": "function",
      "signature": "0x044215c6"
    },
    {
      "constant": true,
      "inputs": [
        {
          "name": "_addr",
          "type": "address"
        }
      ],
      "name": "fromAddress",
      "outputs": [
        {
          "name": "id",
          "type": "uint256"
        },
        {
          "name": "tla",
          "type": "string"
        },
        {
          "name": "base",
          "type": "uint256"
        },
        {
          "name": "name",
          "type": "string"
        },
        {
          "name": "owner",
          "type": "address"
        }
      ],
      "payable": false,
      "stateMutability": "view",
      "type": "function",
      "signature": "0xb72e717d"
    },
    {
      "constant": true,
      "inputs": [
        {
          "name": "_tla",
          "type": "string"
        }
      ],
      "name": "fromTLA",
      "outputs": [
        {
          "name": "id",
          "type": "uint256"
        },
        {
          "name": "addr",
          "type": "address"
        },
        {
          "name": "base",
          "type": "uint256"
        },
        {
          "name": "name",
          "type": "string"
        },
        {
          "name": "owner",
          "type": "address"
        }
      ],
      "payable": false,
      "stateMutability": "view",
      "type": "function",
      "signature": "0x891de9ed"
    },
    {
      "constant": true,
      "inputs": [
        {
          "name": "_id",
          "type": "uint256"
        },
        {
          "name": "_key",
          "type": "bytes32"
        }
      ],
      "name": "meta",
      "outputs": [
        {
          "name": "",
          "type": "bytes32"
        }
      ],
      "payable": false,
      "stateMutability": "view",
      "type": "function",
      "signature": "0x7958533a"
    },
    {
      "constant": false,
      "inputs": [
        {
          "name": "_addr",
          "type": "address"
        },
        {
          "name": "_tla",
          "type": "string"
        },
        {
          "name": "_base",
          "type": "uint256"
        },
        {
          "name": "_name",
          "type": "string"
        },
        {
          "name": "_owner",
          "type": "address"
        }
      ],
      "name": "registerAs",
      "outputs": [
        {
          "name": "",
          "type": "bool"
        }
      ],
      "payable": true,
      "stateMutability": "payable",
      "type": "function",
      "signature": "0x7b1a547c"
    }
  ],
  "bytecode": "0x6080604052336000806101000a81548173ffffffffffffffffffffffffffffffffffffffff021916908373ffffffffffffffffffffffffffffffffffffffff160217905550670de0b6b3a7640000600455600060055534801561006157600080fd5b50611b6a806100716000396000f3006080604052600436106100d0576000357c0100000000000000000000000000000000000000000000000000000000900463ffffffff168063044215c6146100d557806313af40351461025457806366b42dcb1461029757806369fe0e2d1461031f5780637958533a1461034c5780637b1a547c146103a3578063891de9ed146104a75780638da5cb5b146105cf5780639890220b146106265780639f181b5e1461063d578063a02b161e14610668578063b72e717d14610695578063dd93890b146107fe578063ddca3f4314610847575b600080fd5b3480156100e157600080fd5b5061010060048036038101908080359060200190929190505050610872565b604051808673ffffffffffffffffffffffffffffffffffffffff1673ffffffffffffffffffffffffffffffffffffffff16815260200180602001858152602001806020018473ffffffffffffffffffffffffffffffffffffffff1673ffffffffffffffffffffffffffffffffffffffff168152602001838103835287818151815260200191508051906020019080838360005b838110156101ae578082015181840152602081019050610193565b50505050905090810190601f1680156101db5780820380516001836020036101000a031916815260200191505b50838103825285818151815260200191508051906020019080838360005b838110156102145780820151818401526020810190506101f9565b50505050905090810190601f1680156102415780820380516001836020036101000a031916815260200191505b5097505050505050505060405180910390f35b34801561026057600080fd5b50610295600480360381019080803573ffffffffffffffffffffffffffffffffffffffff169060200190929190505050610a75565b005b610305600480360381019080803573ffffffffffffffffffffffffffffffffffffffff16906020019092919080359060200190820180359060200191909192939192939080359060200190929190803590602001908201803590602001919091929391929390505050610b8e565b604051808215151515815260200191505060405180910390f35b34801561032b57600080fd5b5061034a60048036038101908080359060200190929190505050610c0d565b005b34801561035857600080fd5b50610385600480360381019080803590602001909291908035600019169060200190929190505050610c72565b60405180826000191660001916815260200191505060405180910390f35b61048d600480360381019080803573ffffffffffffffffffffffffffffffffffffffff169060200190929190803590602001908201803590602001908080601f016020809104026020016040519081016040528093929190818152602001838380828437820191505050505050919291929080359060200190929190803590602001908201803590602001908080601f0160208091040260200160405190810160405280939291908181526020018383808284378201915050505050509192919290803573ffffffffffffffffffffffffffffffffffffffff169060200190929190505050610cf2565b604051808215151515815260200191505060405180910390f35b3480156104b357600080fd5b506104e0600480360381019080803590602001908201803590602001919091929391929390505050611181565b604051808681526020018573ffffffffffffffffffffffffffffffffffffffff1673ffffffffffffffffffffffffffffffffffffffff168152602001848152602001806020018373ffffffffffffffffffffffffffffffffffffffff1673ffffffffffffffffffffffffffffffffffffffff168152602001828103825284818151815260200191508051906020019080838360005b83811015610590578082015181840152602081019050610575565b50505050905090810190601f1680156105bd5780820380516001836020036101000a031916815260200191505b50965050505050505060405180910390f35b3480156105db57600080fd5b506105e4611338565b604051808273ffffffffffffffffffffffffffffffffffffffff1673ffffffffffffffffffffffffffffffffffffffff16815260200191505060405180910390f35b34801561063257600080fd5b5061063b61135d565b005b34801561064957600080fd5b50610652611418565b6040518082815260200191505060405180910390f35b34801561067457600080fd5b506106936004803603810190808035906020019092919050505061141e565b005b3480156106a157600080fd5b506106d6600480360381019080803573ffffffffffffffffffffffffffffffffffffffff1690602001909291905050506116ed565b6040518086815260200180602001858152602001806020018473ffffffffffffffffffffffffffffffffffffffff1673ffffffffffffffffffffffffffffffffffffffff168152602001838103835287818151815260200191508051906020019080838360005b8381101561075857808201518184015260208101905061073d565b50505050905090810190601f1680156107855780820380516001836020036101000a031916815260200191505b50838103825285818151815260200191508051906020019080838360005b838110156107be5780820151818401526020810190506107a3565b50505050905090810190601f1680156107eb5780820380516001836020036101000a031916815260200191505b5097505050505050505060405180910390f35b34801561080a57600080fd5b50610845600480360381019080803590602001909291908035600019169060200190929190803560001916906020019092919050505061194e565b005b34801561085357600080fd5b5061085c611a93565b6040518082815260200191505060405180910390f35b60006060600060606000808660038181548110151561088d57fe5b906000526020600020906006020160040160149054906101000a900460ff161515156108b857600080fd5b6003888154811015156108c757fe5b906000526020600020906006020191508160000160009054906101000a900473ffffffffffffffffffffffffffffffffffffffff169650816001018054600181600116156101000203166002900480601f0160208091040260200160405190810160405280929190818152602001828054600181600116156101000203166002900480156109965780601f1061096b57610100808354040283529160200191610996565b820191906000526020600020905b81548152906001019060200180831161097957829003601f168201915b5050505050955081600201549450816003018054600181600116156101000203166002900480601f016020809104026020016040519081016040528092919081815260200182805460018160011615610100020316600290048015610a3c5780601f10610a1157610100808354040283529160200191610a3c565b820191906000526020600020905b815481529060010190602001808311610a1f57829003601f168201915b505050505093508160040160009054906101000a900473ffffffffffffffffffffffffffffffffffffffff169250505091939590929450565b6000809054906101000a900473ffffffffffffffffffffffffffffffffffffffff1673ffffffffffffffffffffffffffffffffffffffff163373ffffffffffffffffffffffffffffffffffffffff16141515610ad057600080fd5b8073ffffffffffffffffffffffffffffffffffffffff166000809054906101000a900473ffffffffffffffffffffffffffffffffffffffff1673ffffffffffffffffffffffffffffffffffffffff167f70aea8d848e8a90fb7661b227dc522eb6395c3dac71b63cb59edd5c9899b236460405160405180910390a3806000806101000a81548173ffffffffffffffffffffffffffffffffffffffff021916908373ffffffffffffffffffffffffffffffffffffffff16021790555050565b6000610c018787878080601f0160208091040260200160405190810160405280939291908181526020018383808284378201915050505050508686868080601f01602080910402602001604051908101604052809392919081815260200183838082843782019150505050505033610cf2565b90509695505050505050565b6000809054906101000a900473ffffffffffffffffffffffffffffffffffffffff1673ffffffffffffffffffffffffffffffffffffffff163373ffffffffffffffffffffffffffffffffffffffff16141515610c6857600080fd5b8060048190555050565b600082600381815481101515610c8457fe5b906000526020600020906006020160040160149054906101000a900460ff16151515610caf57600080fd5b600384815481101515610cbe57fe5b9060005260206000209060060201600501600084600019166000191681526020019081526020016000205491505092915050565b6000600454341015610d0357611178565b856000600160008373ffffffffffffffffffffffffffffffffffffffff1673ffffffffffffffffffffffffffffffffffffffff16815260200190815260200160002054141515610d5257611176565b8560038151141515610d6357611174565b8660006002826040518082805190602001908083835b602083101515610d9e5780518252602082019150602081019050602083039250610d79565b6001836020036101000a038019825116818451168082178552505050505050905001915050908152602001604051809103902054141515610dde57611172565b600360c0604051908101604052808b73ffffffffffffffffffffffffffffffffffffffff1681526020018a81526020018981526020018881526020018773ffffffffffffffffffffffffffffffffffffffff168152602001600015158152509080600181540180825580915050906001820390600052602060002090600602016000909192909190915060008201518160000160006101000a81548173ffffffffffffffffffffffffffffffffffffffff021916908373ffffffffffffffffffffffffffffffffffffffff1602179055506020820151816001019080519060200190610ecb929190611a99565b50604082015181600201556060820151816003019080519060200190610ef2929190611a99565b5060808201518160040160006101000a81548173ffffffffffffffffffffffffffffffffffffffff021916908373ffffffffffffffffffffffffffffffffffffffff16021790555060a08201518160040160146101000a81548160ff021916908315150217905550505050600380549050600160008b73ffffffffffffffffffffffffffffffffffffffff1673ffffffffffffffffffffffffffffffffffffffff168152602001908152602001600020819055506003805490506002896040518082805190602001908083835b602083101515610fe45780518252602082019150602081019050602083039250610fbf565b6001836020036101000a0380198251168184511680821785525050505050509050019150509081526020016040518091039020819055506001600380549050037f25074d730da65a10e171fe5589d2182313ef00da38d23a9ae3b78923568bdf2d898b8960405180806020018473ffffffffffffffffffffffffffffffffffffffff1673ffffffffffffffffffffffffffffffffffffffff16815260200180602001838103835286818151815260200191508051906020019080838360005b838110156110be5780820151818401526020810190506110a3565b50505050905090810190601f1680156110eb5780820380516001836020036101000a031916815260200191505b50838103825284818151815260200191508051906020019080838360005b83811015611124578082015181840152602081019050611109565b50505050905090810190601f1680156111515780820380516001836020036101000a031916815260200191505b509550505050505060405180910390a2600160055401600581905550600193505b505b505b505b95945050505050565b6000806000606060008060016002898960405180838380828437820191505092505050908152602001604051809103902054036003818154811015156111c357fe5b906000526020600020906006020160040160149054906101000a900460ff161515156111ee57600080fd5b600160028a8a6040518083838082843782019150509250505090815260200160405180910390205403965060038781548110151561122857fe5b906000526020600020906006020191508160000160009054906101000a900473ffffffffffffffffffffffffffffffffffffffff16955081600201549450816003018054600181600116156101000203166002900480601f0160208091040260200160405190810160405280929190818152602001828054600181600116156101000203166002900480156112fe5780601f106112d3576101008083540402835291602001916112fe565b820191906000526020600020905b8154815290600101906020018083116112e157829003601f168201915b505050505093508160040160009054906101000a900473ffffffffffffffffffffffffffffffffffffffff16925050509295509295909350565b6000809054906101000a900473ffffffffffffffffffffffffffffffffffffffff1681565b6000809054906101000a900473ffffffffffffffffffffffffffffffffffffffff1673ffffffffffffffffffffffffffffffffffffffff163373ffffffffffffffffffffffffffffffffffffffff161415156113b857600080fd5b3373ffffffffffffffffffffffffffffffffffffffff166108fc3073ffffffffffffffffffffffffffffffffffffffff16319081150290604051600060405180830381858888f19350505050158015611415573d6000803e3d6000fd5b50565b60055481565b8060038181548110151561142e57fe5b906000526020600020906006020160040160149054906101000a900460ff1615151561145957600080fd5b6000809054906101000a900473ffffffffffffffffffffffffffffffffffffffff1673ffffffffffffffffffffffffffffffffffffffff163373ffffffffffffffffffffffffffffffffffffffff161415156114b457600080fd5b817f96e76fa77fea85d8abeb7533fdb8288c214bb1dcf1f867c8f36a95f1f509c1756003848154811015156114e557fe5b9060005260206000209060060201600101604051808060200182810382528381815460018160011615610100020316600290048152602001915080546001816001161561010002031660029004801561157f5780601f106115545761010080835404028352916020019161157f565b820191906000526020600020905b81548152906001019060200180831161156257829003601f168201915b50509250505060405180910390a2600160006003848154811015156115a057fe5b906000526020600020906006020160000160009054906101000a900473ffffffffffffffffffffffffffffffffffffffff1673ffffffffffffffffffffffffffffffffffffffff1673ffffffffffffffffffffffffffffffffffffffff16815260200190815260200160002060009055600260038381548110151561162157fe5b9060005260206000209060060201600101604051808280546001816001161561010002031660029004801561168d5780601f1061166b57610100808354040283529182019161168d565b820191906000526020600020905b815481529060010190602001808311611679575b505091505090815260200160405180910390206000905560016003838154811015156116b557fe5b906000526020600020906006020160040160146101000a81548160ff0219169083151502179055506001600554036005819055505050565b600060606000606060008060018060008973ffffffffffffffffffffffffffffffffffffffff1673ffffffffffffffffffffffffffffffffffffffff168152602001908152602001600020540360038181548110151561174957fe5b906000526020600020906006020160040160149054906101000a900460ff1615151561177457600080fd5b60018060008a73ffffffffffffffffffffffffffffffffffffffff1673ffffffffffffffffffffffffffffffffffffffff168152602001908152602001600020540396506003878154811015156117c757fe5b90600052602060002090600602019150816001018054600181600116156101000203166002900480601f01602080910402602001604051908101604052809291908181526020018280546001816001161561010002031660029004801561186f5780601f106118445761010080835404028352916020019161186f565b820191906000526020600020905b81548152906001019060200180831161185257829003601f168201915b5050505050955081600201549450816003018054600181600116156101000203166002900480601f0160208091040260200160405190810160405280929190818152602001828054600181600116156101000203166002900480156119155780601f106118ea57610100808354040283529160200191611915565b820191906000526020600020905b8154815290600101906020018083116118f857829003601f168201915b505050505093508160040160009054906101000a900473ffffffffffffffffffffffffffffffffffffffff169250505091939590929450565b8260038181548110151561195e57fe5b906000526020600020906006020160040160149054906101000a900460ff1615151561198957600080fd5b833373ffffffffffffffffffffffffffffffffffffffff166003828154811015156119b057fe5b906000526020600020906006020160040160009054906101000a900473ffffffffffffffffffffffffffffffffffffffff1673ffffffffffffffffffffffffffffffffffffffff16141515611a0457611a8c565b82600386815481101515611a1457fe5b90600052602060002090600602016005016000866000191660001916815260200190815260200160002081600019169055508360001916857f7991c63a749706fd298fc2387764d640be6e714307b6357b1d3c2ce35cba3b528560405180826000191660001916815260200191505060405180910390a35b5050505050565b60045481565b828054600181600116156101000203166002900490600052602060002090601f016020900481019282601f10611ada57805160ff1916838001178555611b08565b82800160010185558215611b08579182015b82811115611b07578251825591602001919060010190611aec565b5b509050611b159190611b19565b5090565b611b3b91905b80821115611b37576000816000905550600101611b1f565b5090565b905600a165627a7a72305820e16f514d930592381380b0dc58dfaa79af6410260470beb1ab95542bdd25aa910029",
  "source": "//! The token-registry contract.\n//!\n//! Copyright 2017 Gavin Wood, Parity Technologies Ltd.\n//!\n//! Licensed under the Apache License, Version 2.0 (the \"License\");\n//! you may not use this file except in compliance with the License.\n//! You may obtain a copy of the License at\n//!\n//!     http://www.apache.org/licenses/LICENSE-2.0\n//!\n//! Unless required by applicable law or agreed to in writing, software\n//! distributed under the License is distributed on an \"AS IS\" BASIS,\n//! WITHOUT WARRANTIES OR CONDITIONS OF ANY KIND, either express or implied.\n//! See the License for the specific language governing permissions and\n//! limitations under the License.\n\npragma solidity ^0.4.24;\n\nimport \"./Owned.sol\";\n\n\ncontract TokenReg is Owned {\n\tstruct Token {\n\t\taddress addr;\n\t\tstring tla;\n\t\tuint base;\n\t\tstring name;\n\t\taddress owner;\n\t\tbool deleted;\n\t\tmapping (bytes32 => bytes32) meta;\n\t}\n\n\tevent Registered(string tla, uint indexed id, address addr, string name);\n\tevent Unregistered(string tla, uint indexed id);\n\tevent MetaChanged(uint indexed id, bytes32 indexed key, bytes32 value);\n\n\tmapping (address => uint) mapFromAddress;\n\tmapping (string => uint) mapFromTLA;\n\tToken[] tokens;\n\tuint public fee = 1 ether;\n\tuint public tokenCount = 0;\n\n\tmodifier whenFeePaid {\n\t\tif (msg.value < fee)\n\t\t\treturn;\n\t\t_;\n\t}\n\n\tmodifier whenAddressFree(address _addr) {\n\t\tif (mapFromAddress[_addr] != 0)\n\t\t\treturn;\n\t\t_;\n\t}\n\n\tmodifier whenTlaFree(string _tla) {\n\t\tif (mapFromTLA[_tla] != 0)\n\t\t\treturn;\n\t\t_;\n\t}\n\n\tmodifier whenIsTla(string _tla) {\n\t\tif (bytes(_tla).length != 3)\n\t\t\treturn;\n\t\t_;\n\t}\n\n\tmodifier whenToken(uint _id) {\n\t\trequire(!tokens[_id].deleted);\n\t\t_;\n\t}\n\n\tmodifier onlyTokenOwner(uint _id) {\n\t\tif (tokens[_id].owner != msg.sender)\n\t\t\treturn;\n\t\t_;\n\t}\n\n\tfunction register(\n\t\taddress _addr,\n\t\tstring _tla,\n\t\tuint _base,\n\t\tstring _name\n\t)\n\t\texternal\n\t\tpayable\n\t\treturns (bool)\n\t{\n\t\treturn registerAs(\n\t\t\t_addr,\n\t\t\t_tla,\n\t\t\t_base,\n\t\t\t_name,\n\t\t\tmsg.sender\n\t\t);\n\t}\n\n\tfunction unregister(uint _id)\n\t\texternal\n\t\twhenToken(_id)\n\t\tonlyOwner\n\t{\n\t\temit Unregistered(tokens[_id].tla, _id);\n\t\tdelete mapFromAddress[tokens[_id].addr];\n\t\tdelete mapFromTLA[tokens[_id].tla];\n\t\ttokens[_id].deleted = true;\n\t\ttokenCount = tokenCount - 1;\n\t}\n\n\tfunction setFee(uint _fee)\n\t\texternal\n\t\tonlyOwner\n\t{\n\t\tfee = _fee;\n\t}\n\n\tfunction setMeta(uint _id, bytes32 _key, bytes32 _value)\n\t\texternal\n\t\twhenToken(_id)\n\t\tonlyTokenOwner(_id)\n\t{\n\t\ttokens[_id].meta[_key] = _value;\n\t\temit MetaChanged(_id, _key, _value);\n\t}\n\n\tfunction drain()\n\t\texternal\n\t\tonlyOwner\n\t{\n\t\tmsg.sender.transfer(address(this).balance);\n\t}\n\n\tfunction token(uint _id)\n\t\texternal\n\t\tview\n\t\twhenToken(_id)\n\t\treturns (\n\t\t\taddress addr,\n\t\t\tstring tla,\n\t\t\tuint base,\n\t\t\tstring name,\n\t\t\taddress owner\n\t\t)\n\t{\n\t\tToken storage t = tokens[_id];\n\t\taddr = t.addr;\n\t\ttla = t.tla;\n\t\tbase = t.base;\n\t\tname = t.name;\n\t\towner = t.owner;\n\t}\n\n\tfunction fromAddress(address _addr)\n\t\texternal\n\t\tview\n\t\twhenToken(mapFromAddress[_addr] - 1)\n\t\treturns (\n\t\t\tuint id,\n\t\t\tstring tla,\n\t\t\tuint base,\n\t\t\tstring name,\n\t\t\taddress owner\n\t\t)\n\t{\n\t\tid = mapFromAddress[_addr] - 1;\n\t\tToken storage t = tokens[id];\n\t\ttla = t.tla;\n\t\tbase = t.base;\n\t\tname = t.name;\n\t\towner = t.owner;\n\t}\n\n\tfunction fromTLA(string _tla)\n\t\texternal\n\t\tview\n\t\twhenToken(mapFromTLA[_tla] - 1)\n\t\treturns (\n\t\t\tuint id,\n\t\t\taddress addr,\n\t\t\tuint base,\n\t\t\tstring name,\n\t\t\taddress owner\n\t\t)\n\t{\n\t\tid = mapFromTLA[_tla] - 1;\n\t\tToken storage t = tokens[id];\n\t\taddr = t.addr;\n\t\tbase = t.base;\n\t\tname = t.name;\n\t\towner = t.owner;\n\t}\n\n\tfunction meta(uint _id, bytes32 _key)\n\t\texternal\n\t\tview\n\t\twhenToken(_id)\n\t\treturns (bytes32)\n\t{\n\t\treturn tokens[_id].meta[_key];\n\t}\n\n\tfunction registerAs(\n\t\taddress _addr,\n\t\tstring _tla,\n\t\tuint _base,\n\t\tstring _name,\n\t\taddress _owner\n\t)\n\t\tpublic\n\t\tpayable\n\t\twhenFeePaid\n\t\twhenAddressFree(_addr)\n\t\twhenIsTla(_tla)\n\t\twhenTlaFree(_tla)\n\t\treturns (bool)\n\t{\n\t\ttokens.push(Token(\n\t\t\t_addr,\n\t\t\t_tla,\n\t\t\t_base,\n\t\t\t_name,\n\t\t\t_owner,\n\t\t\tfalse\n\t\t));\n\n\t\tmapFromAddress[_addr] = tokens.length;\n\t\tmapFromTLA[_tla] = tokens.length;\n\n\t\temit Registered(\n\t\t\t_tla,\n\t\t\ttokens.length - 1,\n\t\t\t_addr,\n\t\t\t_name\n\t\t);\n\n\t\ttokenCount = tokenCount + 1;\n\t\treturn true;\n\t}\n}\n",
  "sourcePath": "/home/michael/WebstormProjects/token-registry/contracts/TokenReg.sol",
  "compiler": {
    "name": "solc",
    "version": "0.4.25+commit.59dbf8f1.Emscripten.clang"
  },
  "schemaVersion": "3.0.6",
  "updatedAt": "2019-04-20T20:12:26.172Z",
  "devdoc": {
    "methods": {}
  },
  "userdoc": {
    "methods": {}
  }
}